{
  "contractName": "JogoDaVelha",
  "abi": [
    {
      "anonymous": false,
      "inputs": [
        {
          "indexed": false,
          "internalType": "uint32",
          "name": "game_id",
          "type": "uint32"
        },
        {
          "indexed": false,
          "internalType": "address",
          "name": "oponent",
          "type": "address"
        },
        {
          "indexed": false,
          "internalType": "string",
          "name": "game_name",
          "type": "string"
        }
      ],
      "name": "EnterOtherPlayer",
      "type": "event"
    },
    {
      "anonymous": false,
      "inputs": [
        {
          "indexed": false,
          "internalType": "uint32",
          "name": "count",
          "type": "uint32"
        },
        {
          "indexed": false,
          "internalType": "address",
          "name": "owner",
          "type": "address"
        },
        {
          "indexed": false,
          "internalType": "string",
          "name": "game_name",
          "type": "string"
        }
      ],
      "name": "GameHasCreated",
      "type": "event"
    },
    {
      "anonymous": false,
      "inputs": [
        {
          "indexed": false,
          "internalType": "uint32",
          "name": "game_id",
          "type": "uint32"
        },
        {
          "indexed": false,
          "internalType": "address",
          "name": "_address",
          "type": "address"
        },
        {
          "indexed": false,
          "internalType": "uint32",
          "name": "turn",
          "type": "uint32"
        }
      ],
      "name": "TurnPlayer",
      "type": "event"
    },
    {
      "inputs": [],
      "name": "count",
      "outputs": [
        {
          "internalType": "uint32",
          "name": "",
          "type": "uint32"
        }
      ],
      "stateMutability": "view",
      "type": "function",
      "constant": true
    },
    {
      "inputs": [
        {
          "internalType": "uint256",
          "name": "",
          "type": "uint256"
        }
      ],
      "name": "games",
      "outputs": [
        {
          "internalType": "uint32",
          "name": "id",
          "type": "uint32"
        },
        {
          "internalType": "address",
          "name": "owner",
          "type": "address"
        },
        {
          "internalType": "string",
          "name": "name",
          "type": "string"
        },
        {
          "internalType": "address",
          "name": "oponent",
          "type": "address"
        },
        {
          "internalType": "address",
          "name": "winner",
          "type": "address"
        },
        {
          "internalType": "address",
          "name": "next_movement",
          "type": "address"
        }
      ],
      "stateMutability": "view",
      "type": "function",
      "constant": true
    },
    {
      "inputs": [],
      "name": "openGames",
      "outputs": [
        {
          "components": [
            {
              "internalType": "uint32",
              "name": "id",
              "type": "uint32"
            },
            {
              "internalType": "address",
              "name": "owner",
              "type": "address"
            },
            {
              "internalType": "string",
              "name": "name",
              "type": "string"
            },
            {
              "internalType": "address",
              "name": "oponent",
              "type": "address"
            },
            {
              "internalType": "address",
              "name": "winner",
              "type": "address"
            },
            {
              "internalType": "uint32[]",
              "name": "turns_owner",
              "type": "uint32[]"
            },
            {
              "internalType": "uint32[]",
              "name": "turns_oponent",
              "type": "uint32[]"
            },
            {
              "internalType": "address",
              "name": "next_movement",
              "type": "address"
            }
          ],
          "internalType": "struct JogoDaVelha.Game[]",
          "name": "",
          "type": "tuple[]"
        }
      ],
      "stateMutability": "view",
      "type": "function",
      "constant": true
    },
    {
      "inputs": [
        {
          "internalType": "uint32",
          "name": "game_id",
          "type": "uint32"
        },
        {
          "internalType": "uint32",
          "name": "movement",
          "type": "uint32"
        }
      ],
      "name": "runTurn",
      "outputs": [],
      "stateMutability": "nonpayable",
      "type": "function"
    },
    {
      "inputs": [
        {
          "internalType": "uint32",
          "name": "game_id",
          "type": "uint32"
        }
      ],
      "name": "enterGame",
      "outputs": [],
      "stateMutability": "nonpayable",
      "type": "function"
    },
    {
      "inputs": [
        {
          "internalType": "string",
          "name": "_name",
          "type": "string"
        }
      ],
      "name": "createGame",
      "outputs": [
        {
          "internalType": "uint32",
          "name": "",
          "type": "uint32"
        }
      ],
      "stateMutability": "nonpayable",
      "type": "function"
    }
  ],
  "bytecode": "0x60806040526000805463ffffffff1916905534801561001d57600080fd5b50611f6f8061002d6000396000f3fe608060405234801561001057600080fd5b50600436106100625760003560e01c806306661abd14610067578063117a5b901461009157806325933304146100b65780632ebc0504146100cb578063c53a47df146100de578063fac196e6146100f1575b600080fd5b6000546100779063ffffffff1681565b60405163ffffffff90911681526020015b60405180910390f35b6100a461009f36600461189c565b610106565b604051610088969594939291906118fb565b6100c96100c4366004611962565b6101f8565b005b6100776100d93660046119ab565b610ae3565b6100c96100ec366004611a5c565b610cde565b6100f9610ec5565b6040516100889190611abf565b6001818154811061011657600080fd5b60009182526020909120600790910201805460018201805463ffffffff831694506401000000009092046001600160a01b0316929161015490611bd4565b80601f016020809104026020016040519081016040528092919081815260200182805461018090611bd4565b80156101cd5780601f106101a2576101008083540402835291602001916101cd565b820191906000526020600020905b8154815290600101906020018083116101b057829003601f168201915b505050506002830154600384015460069094015492936001600160a01b039182169390821692501686565b600060016102068185611c24565b63ffffffff168154811061021c5761021c611c48565b60009182526020909120600360079092020101546001600160a01b03161461027d5760405162461bcd60e51b815260206004820152600f60248201526e4a4f474f20454e4345525241444f2160881b60448201526064015b60405180910390fd5b33600161028a8185611c24565b63ffffffff16815481106102a0576102a0611c48565b60009182526020909120600660079092020101546001600160a01b0316146102fd5760405162461bcd60e51b815260206004820152601060248201526f4e414f204520535541204a4f4741444160801b6044820152606401610274565b6103b4600161030c8185611c24565b63ffffffff168154811061032257610322611c48565b90600052602060002090600702016004018054806020026020016040519081016040528092919081815260200182805480156103a957602002820191906000526020600020906000905b82829054906101000a900463ffffffff1663ffffffff168152602001906004019060208260030104928301926001038202915080841161036c5790505b50505050508261128f565b6103f25760405162461bcd60e51b815260206004820152600f60248201526e504f534943414f204f43555041444160881b6044820152606401610274565b61048260016104018185611c24565b63ffffffff168154811061041757610417611c48565b90600052602060002090600702016005018054806020026020016040519081016040528092919081815260200182805480156103a9576000918252602091829020805463ffffffff16845290820283019290916004910180841161036c57905050505050508261128f565b6104c05760405162461bcd60e51b815260206004820152600f60248201526e504f534943414f204f43555041444160881b6044820152606401610274565b60016104cc8184611c24565b63ffffffff16815481106104e2576104e2611c48565b600091825260209091206004600790920201015460016105028185611c24565b63ffffffff168154811061051857610518611c48565b9060005260206000209060070201600501805490506105379190611c5e565b60091461056f5760405162461bcd60e51b8152602060048201526006602482015265454d5041544560d01b6044820152606401610274565b33600161057c8185611c24565b63ffffffff168154811061059257610592611c48565b600091825260209091206007909102015464010000000090046001600160a01b0316036108185760016105c58184611c24565b63ffffffff16815481106105db576105db611c48565b60009182526020808320600792830201600490810180546001808201835591865292852060088404018054939094169091026101000a63ffffffff8181021990931692861602919091179091556106dd906106368186611c24565b63ffffffff168154811061064c5761064c611c48565b90600052602060002090600702016004018054806020026020016040519081016040528092919081815260200182805480156106d357602002820191906000526020600020906000905b82829054906101000a900463ffffffff1663ffffffff16815260200190600401906020826003010492830192600103820291508084116106965790505b505050505061132f565b9050801561077c5760016106f18185611c24565b63ffffffff168154811061070757610707611c48565b60009182526020909120600260079092020101546001600160a01b031660016107308186611c24565b63ffffffff168154811061074657610746611c48565b906000526020600020906007020160030160006101000a8154816001600160a01b0302191690836001600160a01b031602179055505b60016107888185611c24565b63ffffffff168154811061079e5761079e611c48565b60009182526020909120600260079092020101546001600160a01b031660016107c78186611c24565b63ffffffff16815481106107dd576107dd611c48565b906000526020600020906007020160060160006101000a8154816001600160a01b0302191690836001600160a01b0316021790555050610a99565b3360016108258185611c24565b63ffffffff168154811061083b5761083b611c48565b60009182526020909120600260079092020101546001600160a01b031603610a995760016108698184611c24565b63ffffffff168154811061087f5761087f611c48565b6000918252602080832060079283020160050180546001808201835591855291842060088304018054929093166004026101000a63ffffffff818102199093169286160291909117909155610958906108d88186611c24565b63ffffffff16815481106108ee576108ee611c48565b90600052602060002090600702016005018054806020026020016040519081016040528092919081815260200182805480156106d3576000918252602091829020805463ffffffff168452908202830192909160049101808411610696579050505050505061132f565b905080156109fc57600161096c8185611c24565b63ffffffff168154811061098257610982611c48565b600091825260209091206007909102015464010000000090046001600160a01b031660016109b08186611c24565b63ffffffff16815481106109c6576109c6611c48565b906000526020600020906007020160030160006101000a8154816001600160a01b0302191690836001600160a01b031602179055505b6001610a088185611c24565b63ffffffff1681548110610a1e57610a1e611c48565b600091825260209091206007909102015464010000000090046001600160a01b03166001610a4c8186611c24565b63ffffffff1681548110610a6257610a62611c48565b906000526020600020906007020160060160006101000a8154816001600160a01b0302191690836001600160a01b03160217905550505b6040805163ffffffff848116825233602083015283168183015290517f86394b2a62f12e7675eb7e5df0c354ee37cfa69cd64c0e07bdde0f0bab74e93d9181900360600190a15050565b60008054610af89063ffffffff166001611c71565b6000805463ffffffff92831663ffffffff19909116811782556040805161010081018252918252336020830190815290820186815260608381018590526080840185905260a0840181905260c0840181905260e084018590526001805480820182559552835160079095027fb10e2d527612073b26eecdfd717e6a320cf44b4afac2b0732d9fcbe2b7fa0cf68101805494516001600160a01b0316640100000000026001600160c01b0319909516969097169590951792909217855551909391928392917fb10e2d527612073b26eecdfd717e6a320cf44b4afac2b0732d9fcbe2b7fa0cf790910190610beb9082611cdd565b5060608201516002820180546001600160a01b039283166001600160a01b031991821617909155608084015160038401805491909316911617905560a08201518051610c419160048401916020909101906117d8565b5060c08201518051610c5d9160058401916020909101906117d8565b5060e09190910151600690910180546001600160a01b0319166001600160a01b039092169190911790556000546040517f13d29846d300c4d5edc935d99846e939d3383e6b0d2079d1ef55e4a3a44c558991610cc59163ffffffff9091169033908890611d9d565b60405180910390a1505060005463ffffffff1692915050565b60005463ffffffff16610d235760405162461bcd60e51b815260206004820152600d60248201526c47414d4520494e56414c49444f60981b6044820152606401610274565b60006001610d318184611c24565b63ffffffff1681548110610d4757610d47611c48565b60009182526020909120600260079092020101546001600160a01b031614610da15760405162461bcd60e51b815260206004820152600d60248201526c47414d4520494e56414c49444f60981b6044820152606401610274565b336001610dae8184611c24565b63ffffffff1681548110610dc457610dc4611c48565b906000526020600020906007020160020160006101000a8154816001600160a01b0302191690836001600160a01b03160217905550610e0281611670565b6001610e0e8184611c24565b63ffffffff1681548110610e2457610e24611c48565b6000918252602090912060079091020160060180546001600160a01b0319166001600160a01b03929092169190911790557f3862eb0e420e94837b8325a468783fc8f8ecf39c76e7904d6a79d3210b67e5a081336001610e848184611c24565b63ffffffff1681548110610e9a57610e9a611c48565b9060005260206000209060070201600101604051610eba93929190611dd6565b60405180910390a150565b606060008060005b600154811015610f375760006001600160a01b031660018281548110610ef557610ef5611c48565b60009182526020909120600260079092020101546001600160a01b031603610f255781610f2181611e7e565b9250505b80610f2f81611e7e565b915050610ecd565b5060008167ffffffffffffffff811115610f5357610f53611995565b604051908082528060200260200182016040528015610fc457816020015b60408051610100810182526000808252602080830182905260609383018490528383018290526080830182905260a0830184905260c083019390935260e08201528252600019909201910181610f715790505b50905060005b6001548110156112875760006001600160a01b031660018281548110610ff257610ff2611c48565b60009182526020909120600260079092020101546001600160a01b031603611275576001818154811061102757611027611c48565b600091825260209182902060408051610100810182526007909302909101805463ffffffff811684526001600160a01b0364010000000090910416938301939093526001830180549293929184019161107f90611bd4565b80601f01602080910402602001604051908101604052809291908181526020018280546110ab90611bd4565b80156110f85780601f106110cd576101008083540402835291602001916110f8565b820191906000526020600020905b8154815290600101906020018083116110db57829003601f168201915b505050918352505060028201546001600160a01b03908116602080840191909152600384015490911660408084019190915260048401805482518185028101850190935280835260609094019391929091908301828280156111a557602002820191906000526020600020906000905b82829054906101000a900463ffffffff1663ffffffff16815260200190600401906020826003010492830192600103820291508084116111685790505b505050505081526020016005820180548060200260200160405190810160405280929190818152602001828054801561122957602002820191906000526020600020906000905b82829054906101000a900463ffffffff1663ffffffff16815260200190600401906020826003010492830192600103820291508084116111ec5790505b5050509183525050600691909101546001600160a01b0316602090910152825183908690811061125b5761125b611c48565b6020026020010181905250838061127190611e7e565b9450505b8061127f81611e7e565b915050610fca565b509392505050565b6000805b83518163ffffffff16101561132357838163ffffffff16815181106112ba576112ba611c48565b602002602001015163ffffffff168363ffffffff16036113115760405162461bcd60e51b8152602060048201526012602482015271504f534943414f204a41204f43555041444160701b6044820152606401610274565b8061131b81611e97565b915050611293565b50600190505b92915050565b6000808080808080808080805b8b518163ffffffff161015611516578961137c578b8163ffffffff168151811061136857611368611c48565b602002602001015163ffffffff1660001499505b886113ad578b8163ffffffff168151811061139957611399611c48565b602002602001015163ffffffff1660011498505b876113de578b8163ffffffff16815181106113ca576113ca611c48565b602002602001015163ffffffff1660021497505b8661140f578b8163ffffffff16815181106113fb576113fb611c48565b602002602001015163ffffffff1660031496505b85611440578b8163ffffffff168151811061142c5761142c611c48565b602002602001015163ffffffff1660041495505b84611471578b8163ffffffff168151811061145d5761145d611c48565b602002602001015163ffffffff1660051494505b836114a2578b8163ffffffff168151811061148e5761148e611c48565b602002602001015163ffffffff1660061493505b826114d3578b8163ffffffff16815181106114bf576114bf611c48565b602002602001015163ffffffff1660071492505b81611504578b8163ffffffff16815181106114f0576114f0611c48565b602002602001015163ffffffff1660081491505b8061150e81611e97565b91505061133c565b508880156115215750875b801561152a5750865b15611540575060019a9950505050505050505050565b85801561154a5750845b80156115535750835b15611569575060019a9950505050505050505050565b8280156115735750815b801561157c5750805b15611592575060019a9950505050505050505050565b88801561159c5750855b80156115a55750825b156115bb575060019a9950505050505050505050565b8780156115c55750845b80156115ce5750815b156115e4575060019a9950505050505050505050565b8680156115ee5750835b80156115f75750805b1561160d575060019a9950505050505050505050565b8880156116175750845b80156116205750805b15611636575060019a9950505050505050505050565b8680156116405750845b80156116495750825b1561165f575060019a9950505050505050505050565b5060009a9950505050505050505050565b6040805160028082526060820183526000928392919060208301908036833701905050905060016116a18185611c24565b63ffffffff16815481106116b7576116b7611c48565b906000526020600020906007020160000160049054906101000a90046001600160a01b0316816000815181106116ef576116ef611c48565b6001600160a01b039092166020928302919091019091015260016117138185611c24565b63ffffffff168154811061172957611729611c48565b906000526020600020906007020160020160009054906101000a90046001600160a01b03168160018151811061176157611761611c48565b6001600160a01b0390921660209283029190910182015281516040516000926117909142913391879101611eba565b6040516020818303038152906040528051906020012060001c6117b39190611f17565b90508181815181106117c7576117c7611c48565b602002602001015192505050919050565b828054828255906000526020600020906007016008900481019282156118775791602002820160005b8382111561184557835183826101000a81548163ffffffff021916908363ffffffff1602179055509260200192600401602081600301049283019260010302611801565b80156118755782816101000a81549063ffffffff0219169055600401602081600301049283019260010302611845565b505b50611883929150611887565b5090565b5b808211156118835760008155600101611888565b6000602082840312156118ae57600080fd5b5035919050565b6000815180845260005b818110156118db576020818501810151868301820152016118bf565b506000602082860101526020601f19601f83011685010191505092915050565b63ffffffff87168152600060018060a01b03808816602084015260c0604084015261192960c08401886118b5565b9581166060840152938416608083015250911660a0909101529392505050565b803563ffffffff8116811461195d57600080fd5b919050565b6000806040838503121561197557600080fd5b61197e83611949565b915061198c60208401611949565b90509250929050565b634e487b7160e01b600052604160045260246000fd5b6000602082840312156119bd57600080fd5b813567ffffffffffffffff808211156119d557600080fd5b818401915084601f8301126119e957600080fd5b8135818111156119fb576119fb611995565b604051601f8201601f19908116603f01168101908382118183101715611a2357611a23611995565b81604052828152876020848701011115611a3c57600080fd5b826020860160208301376000928101602001929092525095945050505050565b600060208284031215611a6e57600080fd5b611a7782611949565b9392505050565b600081518084526020808501945080840160005b83811015611ab457815163ffffffff1687529582019590820190600101611a92565b509495945050505050565b60006020808301818452808551808352604092508286019150828160051b87010184880160005b83811015611bc657888303603f190185528151805163ffffffff168452610100818901516001600160a01b038116868b015250878201518189870152611b2e828701826118b5565b915050606080830151611b4b828801826001600160a01b03169052565b50506080828101516001600160a01b03169086015260a08083015186830382880152611b778382611a7e565b9250505060c08083015186830382880152611b928382611a7e565b9250505060e0808301519250611bb2818701846001600160a01b03169052565b509588019593505090860190600101611ae6565b509098975050505050505050565b600181811c90821680611be857607f821691505b602082108103611c0857634e487b7160e01b600052602260045260246000fd5b50919050565b634e487b7160e01b600052601160045260246000fd5b63ffffffff828116828216039080821115611c4157611c41611c0e565b5092915050565b634e487b7160e01b600052603260045260246000fd5b8082018082111561132957611329611c0e565b63ffffffff818116838216019080821115611c4157611c41611c0e565b601f821115611cd857600081815260208120601f850160051c81016020861015611cb55750805b601f850160051c820191505b81811015611cd457828155600101611cc1565b5050505b505050565b815167ffffffffffffffff811115611cf757611cf7611995565b611d0b81611d058454611bd4565b84611c8e565b602080601f831160018114611d405760008415611d285750858301515b600019600386901b1c1916600185901b178555611cd4565b600085815260208120601f198616915b82811015611d6f57888601518255948401946001909101908401611d50565b5085821015611d8d5787850151600019600388901b60f8161c191681555b5050505050600190811b01905550565b63ffffffff841681526001600160a01b0383166020820152606060408201819052600090611dcd908301846118b5565b95945050505050565b63ffffffff841681526000602060018060a01b038516818401526060604084015260008454611e0481611bd4565b8060608701526080600180841660008114611e265760018114611e4057611e6e565b60ff1985168984015283151560051b890183019550611e6e565b896000528660002060005b85811015611e665781548b8201860152908301908801611e4b565b8a0184019650505b50939a9950505050505050505050565b600060018201611e9057611e90611c0e565b5060010190565b600063ffffffff808316818103611eb057611eb0611c0e565b6001019392505050565b838152600060206bffffffffffffffffffffffff198560601b168184015260348301845182860160005b82811015611f095781516001600160a01b031684529284019290840190600101611ee4565b509198975050505050505050565b600082611f3457634e487b7160e01b600052601260045260246000fd5b50069056fea264697066735822122059604bf44d1b8b1cec76031b2d0816e85dea3cc83383ffdcec160f4e0d3c237f64736f6c63430008100033",
  "immutableReferences": {},
  "source": "// SPDX-License-Identifier: MIT\r\npragma solidity ^0.8.0;\r\n\r\ncontract JogoDaVelha {\r\n    uint32 public count = 0;\r\n    Game[] public games;\r\n\r\n    event GameHasCreated(uint32 count, address owner, string game_name);\r\n    event EnterOtherPlayer(uint32 game_id, address oponent, string game_name);\r\n    event TurnPlayer(uint32 game_id, address _address, uint32 turn);\r\n\r\n    struct Game {\r\n        uint32 id;\r\n        address owner;\r\n        string name;\r\n        address oponent;\r\n        address winner;\r\n        uint32[] turns_owner;\r\n        uint32[] turns_oponent;\r\n        address next_movement;\r\n    }\r\n\r\n    function openGames() public view returns (Game[] memory) {\r\n        uint256 j = 0;\r\n        uint256 resultCount = 0;\r\n\r\n        for (uint256 index = 0; index < games.length; index++) {\r\n            if (games[index].oponent == address(0)) {\r\n                resultCount++;\r\n            }\r\n        }\r\n\r\n        Game[] memory result = new Game[](resultCount);\r\n\r\n        for (uint256 index = 0; index < games.length; index++) {\r\n            if (games[index].oponent == address(0)) {\r\n                result[j] = games[index];\r\n                j++;\r\n            }\r\n        }\r\n        return result;\r\n    }\r\n\r\n    function runTurn(uint32 game_id, uint32 movement) public {\r\n        require(games[game_id - 1].winner == address(0), \"JOGO ENCERRADO!\");\r\n        require(\r\n            games[game_id - 1].next_movement == msg.sender,\r\n            \"NAO E SUA JOGADA\"\r\n        );\r\n        require(\r\n            validate_turn(games[game_id - 1].turns_owner, movement),\r\n            \"POSICAO OCUPADA\"\r\n        );\r\n        require(\r\n            validate_turn(games[game_id - 1].turns_oponent, movement),\r\n            \"POSICAO OCUPADA\"\r\n        );\r\n        require(\r\n            (games[game_id - 1].turns_oponent.length +\r\n                games[game_id - 1].turns_owner.length) == 9,\r\n            \"EMPATE\"\r\n        );\r\n        if (games[game_id - 1].owner == msg.sender) {\r\n            games[game_id - 1].turns_owner.push(movement);\r\n            bool win = validade_win(games[game_id - 1].turns_owner);\r\n            if (win) games[game_id - 1].winner = games[game_id - 1].oponent;\r\n            games[game_id - 1].next_movement = games[game_id - 1].oponent;\r\n        } else if (games[game_id - 1].oponent == msg.sender) {\r\n            games[game_id - 1].turns_oponent.push(movement);\r\n            bool win = validade_win(games[game_id - 1].turns_oponent);\r\n            if (win) games[game_id - 1].winner = games[game_id - 1].owner;\r\n            games[game_id - 1].next_movement = games[game_id - 1].owner;\r\n        }\r\n        emit TurnPlayer(game_id, msg.sender, movement);\r\n    }\r\n\r\n    function enterGame(uint32 game_id) public {\r\n        require(count > 0, \"GAME INVALIDO\");\r\n        require(games[game_id - 1].oponent == address(0), \"GAME INVALIDO\");\r\n        games[game_id - 1].oponent = msg.sender;\r\n        games[game_id - 1].next_movement = random(game_id);\r\n        emit EnterOtherPlayer(game_id, msg.sender, games[game_id - 1].name);\r\n    }\r\n\r\n    function createGame(string memory _name) public returns (uint32) {\r\n        count = count + 1;\r\n        uint32[] memory empty;\r\n        Game memory game = Game(\r\n            count,\r\n            msg.sender,\r\n            _name,\r\n            address(0),\r\n            address(0),\r\n            empty,\r\n            empty,\r\n            address(0)\r\n        );\r\n        games.push(game);\r\n        emit GameHasCreated(count, msg.sender, _name);\r\n        return count;\r\n    }\r\n\r\n    function random(uint32 game_id) private view returns (address) {\r\n        address[] memory players = new address[](2);\r\n        players[0] = games[game_id - 1].owner;\r\n        players[1] = games[game_id - 1].oponent;\r\n\r\n        uint256 index = uint256(\r\n            keccak256(abi.encodePacked(block.timestamp, msg.sender, players))\r\n        ) % players.length;\r\n        return players[index];\r\n    }\r\n\r\n    function validade_win(uint32[] memory turns) private pure returns (bool) {\r\n        bool v0 = false;\r\n        bool v1 = false;\r\n        bool v2 = false;\r\n        bool v3 = false;\r\n        bool v4 = false;\r\n        bool v5 = false;\r\n        bool v6 = false;\r\n        bool v7 = false;\r\n        bool v8 = false;\r\n\r\n        for (uint32 index = 0; index < turns.length; index++) {\r\n            if (!v0) v0 = turns[index] == 0;\r\n            if (!v1) v1 = turns[index] == 1;\r\n            if (!v2) v2 = turns[index] == 2;\r\n            if (!v3) v3 = turns[index] == 3;\r\n            if (!v4) v4 = turns[index] == 4;\r\n            if (!v5) v5 = turns[index] == 5;\r\n            if (!v6) v6 = turns[index] == 6;\r\n            if (!v7) v7 = turns[index] == 7;\r\n            if (!v8) v8 = turns[index] == 8;\r\n        }\r\n        if (v0 && v1 && v2) return true;\r\n        if (v3 && v4 && v5) return true;\r\n        if (v6 && v7 && v8) return true;\r\n        if (v0 && v3 && v6) return true;\r\n        if (v1 && v4 && v7) return true;\r\n        if (v2 && v5 && v8) return true;\r\n        if (v0 && v4 && v8) return true;\r\n        if (v2 && v4 && v6) return true;\r\n        return false;\r\n    }\r\n\r\n    function validate_turn(uint32[] memory array, uint32 movement)\r\n        private\r\n        pure\r\n        returns (bool)\r\n    {\r\n        for (uint32 index = 0; index < array.length; index++) {\r\n            if (movement == array[index]) {\r\n                revert(\"POSICAO JA OCUPADA\");\r\n            }\r\n        }\r\n        return true;\r\n    }\r\n}\r\n",
  "sourcePath": "c:\\Users\\jv\\Documents\\GitHub\\ethereum-simple-games-play-2-people\\contracts\\JogoDaVelha.sol",
  "compiler": {
    "name": "solc",
    "version": "0.8.16+commit.07a7930e.Emscripten.clang"
  },
  "schemaVersion": "3.4.9",
  "updatedAt": "2022-08-19T17:02:16.461Z",
  "networkType": "ethereum",
  "devdoc": {
    "kind": "dev",
    "methods": {},
    "version": 1
  },
  "userdoc": {
    "kind": "user",
    "methods": {},
    "version": 1
  }
}