{
  "contractName": "JogoDaVelha",
  "abi": [
    {
      "anonymous": false,
      "inputs": [
        {
          "indexed": false,
          "internalType": "uint32",
          "name": "count",
          "type": "uint32"
        },
        {
          "indexed": false,
          "internalType": "address",
          "name": "owner",
          "type": "address"
        },
        {
          "indexed": false,
          "internalType": "string",
          "name": "game_name",
          "type": "string"
        }
      ],
      "name": "GameHasCreated",
      "type": "event"
    },
    {
      "constant": true,
      "inputs": [],
      "name": "count",
      "outputs": [
        {
          "internalType": "uint32",
          "name": "",
          "type": "uint32"
        }
      ],
      "payable": false,
      "stateMutability": "view",
      "type": "function"
    },
    {
      "constant": true,
      "inputs": [
        {
          "internalType": "uint256",
          "name": "",
          "type": "uint256"
        }
      ],
      "name": "games",
      "outputs": [
        {
          "internalType": "address",
          "name": "owner",
          "type": "address"
        },
        {
          "internalType": "string",
          "name": "name",
          "type": "string"
        },
        {
          "internalType": "address",
          "name": "oponent",
          "type": "address"
        }
      ],
      "payable": false,
      "stateMutability": "view",
      "type": "function"
    },
    {
      "constant": false,
      "inputs": [
        {
          "internalType": "string",
          "name": "_name",
          "type": "string"
        }
      ],
      "name": "createGame",
      "outputs": [
        {
          "internalType": "uint32",
          "name": "",
          "type": "uint32"
        }
      ],
      "payable": false,
      "stateMutability": "nonpayable",
      "type": "function"
    }
  ],
  "bytecode": "0x60806040526000805463ffffffff1916905534801561001d57600080fd5b506105628061002d6000396000f3fe608060405234801561001057600080fd5b50600436106100415760003560e01c806306661abd14610046578063117a5b90146100675780632ebc050414610116575b600080fd5b61004e6101bc565b6040805163ffffffff9092168252519081900360200190f35b6100846004803603602081101561007d57600080fd5b50356101c8565b604080516001600160a01b038086168252831691810191909152606060208083018281528551928401929092528451608084019186019080838360005b838110156100d95781810151838201526020016100c1565b50505050905090810190601f1680156101065780820380516001836020036101000a031916815260200191505b5094505050505060405180910390f35b61004e6004803603602081101561012c57600080fd5b81019060208101813564010000000081111561014757600080fd5b82018360208201111561015957600080fd5b8035906020019184600183028401116401000000008311171561017b57600080fd5b91908080601f01602080910402602001604051908101604052809392919081815260200183838082843760009201919091525092955061029b945050505050565b60005463ffffffff1681565b600181815481106101d557fe5b600091825260209182902060039091020180546001808301805460408051601f60026000199685161561010002969096019093169490940491820187900487028401870190528083526001600160a01b0390931695509293909291908301828280156102825780601f1061025757610100808354040283529160200191610282565b820191906000526020600020905b81548152906001019060200180831161026557829003601f168201915b505050600290930154919250506001600160a01b031683565b6000805463ffffffff8082166001011663ffffffff199091161781556102bf61045f565b506040805160608101825233815260208082018581526000938301849052600180548082018083559190955283517fb10e2d527612073b26eecdfd717e6a320cf44b4afac2b0732d9fcbe2b7fa0cf6600390960295860180546001600160a01b0319166001600160a01b039092169190911781559151805194959194869461036b937fb10e2d527612073b26eecdfd717e6a320cf44b4afac2b0732d9fcbe2b7fa0cf701920190610492565b5060409182015160029190910180546001600160a01b0319166001600160a01b0390921691909117905560008054825163ffffffff90911680825233602080840182905260609584018681528a519685019690965289517f13d29846d300c4d5edc935d99846e939d3383e6b0d2079d1ef55e4a3a44c55899750929591948a949360808501928601918190849084905b838110156104135781810151838201526020016103fb565b50505050905090810190601f1680156104405780820380516001836020036101000a031916815260200191505b5094505050505060405180910390a1505060005463ffffffff16919050565b604051806060016040528060006001600160a01b031681526020016060815260200160006001600160a01b031681525090565b828054600181600116156101000203166002900490600052602060002090601f016020900481019282601f106104d357805160ff1916838001178555610500565b82800160010185558215610500579182015b828111156105005782518255916020019190600101906104e5565b5061050c929150610510565b5090565b61052a91905b8082111561050c5760008155600101610516565b9056fea265627a7a72315820cce1f1b78f2236572d327ab7b56e0e49c878dd768809c60f22bdba01442cfb9364736f6c63430005100032",
  "source": "// SPDX-License-Identifier: MIT\r\npragma solidity >=0.4.22 <0.9.0;\r\n\r\ncontract JogoDaVelha {\r\n    uint32 public count = 0;\r\n    Game[] public games;\r\n\r\n    event GameHasCreated(uint32 count, address owner, string game_name);\r\n\r\n    struct Game {\r\n        address owner;\r\n        string name;\r\n        address oponent;\r\n    }\r\n\r\n    // function gameOpen() public return([]){\r\n    //     Game[] memory _games;\r\n    //     return _games;\r\n    // }\r\n\r\n    function createGame(string memory _name) public returns (uint32) {\r\n        count = count + 1;\r\n        Game memory game = Game(msg.sender, _name, address(0));\r\n        games.push(game);\r\n        emit GameHasCreated(count, msg.sender, _name);\r\n        return count;\r\n    }\r\n}\r\n",
  "sourcePath": "c:\\Users\\jv\\Documents\\GitHub\\ethereum-simple-games-play-2-people\\contracts\\JogoDaVelha.sol",
  "compiler": {
    "name": "solc",
    "version": "0.5.16+commit.9c3226ce.Emscripten.clang"
  },
  "schemaVersion": "3.4.9",
  "updatedAt": "2022-08-18T18:33:13.176Z",
  "networkType": "ethereum",
  "devdoc": {
    "methods": {}
  },
  "userdoc": {
    "methods": {}
  }
}