{
  "contractName": "Name",
  "abi": [
    {
      "inputs": [],
      "name": "name",
      "outputs": [
        {
          "internalType": "string",
          "name": "",
          "type": "string"
        }
      ],
      "stateMutability": "view",
      "type": "function",
      "constant": true
    },
    {
      "inputs": [],
      "name": "getName",
      "outputs": [
        {
          "internalType": "string",
          "name": "",
          "type": "string"
        }
      ],
      "stateMutability": "view",
      "type": "function",
      "constant": true
    },
    {
      "inputs": [
        {
          "internalType": "string",
          "name": "_name",
          "type": "string"
        }
      ],
      "name": "setName",
      "outputs": [],
      "stateMutability": "nonpayable",
      "type": "function"
    }
  ],
  "bytecode": "0x60c06040526005608090815264046696c69760dc1b60a05260009061002490826100d6565b5034801561003157600080fd5b50610195565b634e487b7160e01b600052604160045260246000fd5b600181811c9082168061006157607f821691505b60208210810361008157634e487b7160e01b600052602260045260246000fd5b50919050565b601f8211156100d157600081815260208120601f850160051c810160208610156100ae5750805b601f850160051c820191505b818110156100cd578281556001016100ba565b5050505b505050565b81516001600160401b038111156100ef576100ef610037565b610103816100fd845461004d565b84610087565b602080601f83116001811461013857600084156101205750858301515b600019600386901b1c1916600185901b1785556100cd565b600085815260208120601f198616915b8281101561016757888601518255948401946001909101908401610148565b50858210156101855787850151600019600388901b60f8161c191681555b5050505050600190811b01905550565b610445806101a46000396000f3fe608060405234801561001057600080fd5b50600436106100415760003560e01c806306fdde031461004657806317d7de7c14610064578063c47f00271461006c575b600080fd5b61004e610081565b60405161005b91906101b1565b60405180910390f35b61004e61010f565b61007f61007a366004610215565b6101a1565b005b6000805461008e906102c6565b80601f01602080910402602001604051908101604052809291908181526020018280546100ba906102c6565b80156101075780601f106100dc57610100808354040283529160200191610107565b820191906000526020600020905b8154815290600101906020018083116100ea57829003601f168201915b505050505081565b60606000805461011e906102c6565b80601f016020809104026020016040519081016040528092919081815260200182805461014a906102c6565b80156101975780601f1061016c57610100808354040283529160200191610197565b820191906000526020600020905b81548152906001019060200180831161017a57829003601f168201915b5050505050905090565b60006101ad828261034f565b5050565b600060208083528351808285015260005b818110156101de578581018301518582016040015282016101c2565b506000604082860101526040601f19601f8301168501019250505092915050565b634e487b7160e01b600052604160045260246000fd5b60006020828403121561022757600080fd5b813567ffffffffffffffff8082111561023f57600080fd5b818401915084601f83011261025357600080fd5b813581811115610265576102656101ff565b604051601f8201601f19908116603f0116810190838211818310171561028d5761028d6101ff565b816040528281528760208487010111156102a657600080fd5b826020860160208301376000928101602001929092525095945050505050565b600181811c908216806102da57607f821691505b6020821081036102fa57634e487b7160e01b600052602260045260246000fd5b50919050565b601f82111561034a57600081815260208120601f850160051c810160208610156103275750805b601f850160051c820191505b8181101561034657828155600101610333565b5050505b505050565b815167ffffffffffffffff811115610369576103696101ff565b61037d8161037784546102c6565b84610300565b602080601f8311600181146103b2576000841561039a5750858301515b600019600386901b1c1916600185901b178555610346565b600085815260208120601f198616915b828110156103e1578886015182559484019460019091019084016103c2565b50858210156103ff5787850151600019600388901b60f8161c191681555b5050505050600190811b0190555056fea2646970667358221220070f99e93217fd004d3e509c075a8b40c6246fb927ef1e6e1808c2ad256af12364736f6c63430008100033",
  "immutableReferences": {},
  "source": "// SPDX-License-Identifier: MIT\r\npragma solidity >=0.4.22 <0.9.0;\r\n\r\ncontract Name {\r\n    string public name = \"Filip\";\r\n\r\n    function getName() public view returns (string memory) {\r\n        return name;\r\n    }\r\n\r\n    function setName(string memory _name) public {\r\n        name = _name;\r\n    }\r\n}\r\n",
  "sourcePath": "c:\\Users\\jv\\Documents\\GitHub\\ethereum-simple-games-play-2-people\\contracts\\Name.sol",
  "compiler": {
    "name": "solc",
    "version": "0.8.16+commit.07a7930e.Emscripten.clang"
  },
  "schemaVersion": "3.4.9",
  "updatedAt": "2022-08-19T17:02:16.456Z",
  "networkType": "ethereum",
  "devdoc": {
    "kind": "dev",
    "methods": {},
    "version": 1
  },
  "userdoc": {
    "kind": "user",
    "methods": {},
    "version": 1
  }
}